:100000000C942A000C942D070C9447000C94470084
:100010000C9447000C94CA050C9447000C944700BC
:100020000C9447000C9447000C9447000C948707ED
:100030000C9447000C9447000C9447000C94470024
:100040000C9447000C9447000C9447000C94470014
:100050000C94470011241FBECFE5D8E0DEBFCDBF12
:1000600010E0A0E6B0E0EAE5F4E102C005900D92F0
:10007000A43BB107D9F710E0A4EBB0E001C01D929A
:10008000AC3BB107E1F70E94AB030C942B0A0C9434
:100090000000379A3F9A3E9A329A319A0895369ADA
:1000A0003699FECF84B190E045B1342F20E0822B09
:1000B000932B0895843409F471C0853448F4823454
:1000C00099F1833408F04DC0813409F083C00FC02A
:1000D000823651F1833620F4813609F07BC007C0A7
:1000E000833609F43EC0843609F074C057C04130ED
:1000F00069F42AB381E090E0AC0102C0440F551FBF
:100100006A95E2F7BA01622B6ABB08952AB381E0CF
:1001100090E0AC0102C0440F551F6A95E2F7BA01A6
:10012000609562236ABB0895413069F427B381E08A
:1001300090E0AC0102C0440F551F6A95E2F7BA0186
:10014000622B67BB089527B381E090E0AC0102C049
:10015000440F551F6A95E2F7BA016095622367BBA9
:100160000895413069F424B381E090E0AC0102C00D
:10017000440F551F6A95E2F7BA01622B64BB0895DC
:1001800024B381E090E0AC0102C0440F551F6A9592
:10019000E2F7BA016095622364BB0895413069F4C7
:1001A00021B381E090E0AC0102C0440F551F6A9575
:1001B000E2F7BA01622B61BB089521B381E090E0C0
:1001C000AC0102C0440F551F6A95E2F7BA01609571
:1001D000622361BB0895843409F471C0853448F406
:1001E000823499F1833408F04DC0813409F083C022
:1001F0000FC0823651F1833620F4813609F07BC07E
:1002000007C0833609F43EC0843609F074C057C075
:10021000413069F42BB381E090E0AC0102C0440F9F
:10022000551F6A95E2F7BA01622B6BBB08952BB399
:1002300081E090E0AC0102C0440F551F6A95E2F7DF
:10024000BA01609562236BBB0895413069F428B30D
:1002500081E090E0AC0102C0440F551F6A95E2F7BF
:10026000BA01622B68BB089528B381E090E0AC012D
:1002700002C0440F551F6A95E2F7BA0160956223E8
:1002800068BB0895413069F425B381E090E0AC018A
:1002900002C0440F551F6A95E2F7BA01622B65BB95
:1002A000089525B381E090E0AC0102C0440F551FD2
:1002B0006A95E2F7BA016095622365BB0895413003
:1002C00069F422B381E090E0AC0102C0440F551FF5
:1002D0006A95E2F7BA01622B62BB089522B381E00E
:1002E00090E0AC0102C0440F551F6A95E2F7BA01D5
:1002F0006095622362BB0895843409F43DC085345F
:1003000040F48234F9F0833450F5813409F040C070
:100310000CC08236B9F0833618F48136C9F505C0B1
:100320008336E9F08436A1F527C02BB381E090E055
:10033000AC0102C0440F551F6A95E2F7BA0162276B
:100340006BBB089528B381E090E0AC0102C0440F7C
:10035000551F6A95E2F7BA01622768BB089525B375
:1003600081E090E0AC0102C0440F551F6A95E2F7AE
:10037000BA01622765BB089522B381E090E0AC0129
:1003800002C0440F551F6A95E2F7BA01622762BBAB
:100390000895843409F451C0853440F4823439F12D
:1003A0008334C0F5813409F05AC00EC08236F9F0AA
:1003B000833620F4813609F052C006C0833651F1ED
:1003C000843609F04CC039C029B381E090E0062E94
:1003D00002C0880F991F0A94E2F730E0822393232A
:1003E00002C0959587956A95E2F7982F38C026B395
:1003F00081E090E0062E02C0880F991F0A94E2F770
:1004000030E08223932302C0959587956A95E2F7A1
:10041000982F25C023B381E090E0062E02C0880FFC
:10042000991F0A94E2F730E08223932302C0959546
:1004300087956A95E2F7982F12C020B381E090E08B
:10044000062E02C0880F991F0A94E2F730E082233B
:10045000932302C0959587956A95E2F7982F892F87
:1004600008958434D9F0853438F4823499F0833493
:1004700098F48134A1F40CC0823661F0833618F40C
:10048000813669F405C0833639F0843641F406C0FC
:100490006ABB089567BB089564BB089561BB089566
:1004A0008434B1F0853438F4823471F0833470F4DC
:1004B000813479F407C0833649F0843649F08236B6
:1004C00041F402C06BBB089568BB089565BB0895F5
:1004D00062BB08958434D9F0853438F4823499F0BD
:1004E000833498F48134A1F40CC0823661F08336F1
:1004F00018F4813669F405C0833639F0843641F446
:1005000006C099B305C096B303C093B301C096B3B8
:10051000892F0895843409F1853438F48234A9F0A0
:100520008334B8F48134E1F40CC0823671F0833640
:1005300018F48136A9F405C0833659F0843681F465
:100540000CC08BB380958BBB089588B3809588BB16
:10055000089585B3809585BB089582B3809582BB4D
:100560000895843409F471C0853448F4823499F1D3
:10057000833408F04DC0813409F083C00FC0823647
:1005800051F1833620F4813609F07BC007C08336F1
:1005900009F43EC0843609F074C057C0413069F494
:1005A0002BB381E090E0AC0102C0440F551F6A9567
:1005B000E2F7BA01622B6BBB08952BB381E090E0A8
:1005C000AC0102C0440F551F6A95E2F7BA0160956D
:1005D00062236BBB0895413069F428B381E090E059
:1005E000AC0102C0440F551F6A95E2F7BA01622BB5
:1005F00068BB089528B381E090E0AC0102C0440FCD
:10060000551F6A95E2F7BA016095622368BB0895A9
:10061000413069F425B381E090E0AC0102C0440FA1
:10062000551F6A95E2F7BA01622B65BB089525B3A1
:1006300081E090E0AC0102C0440F551F6A95E2F7DB
:10064000BA016095622365BB0895413069F422B315
:1006500081E090E0AC0102C0440F551F6A95E2F7BB
:10066000BA01622B62BB089522B381E090E0AC0135
:1006700002C0440F551F6A95E2F7BA0160956223E4
:1006800062BB08956F70843451F1853438F482343C
:10069000C1F08334E8F4813441F50CC0823689F02E
:1006A000833618F4813609F505C0833689F084361F
:1006B000E1F415C08BB3807F8BBB8BB3682B6BBB16
:1006C000089588B3807F88BB88B3682B68BB089582
:1006D00085B3807F85BB85B3682B65BB089582B3E6
:1006E000807F82BB82B3682B62BB08956295607F76
:1006F000843451F1853438F48234C1F08334E8F421
:10070000813441F50CC0823689F0833618F4813685
:1007100009F505C0833689F08436E1F415C08BB342
:100720008F708BBB8BB3682B6BBB089588B38F70B6
:1007300088BB88B3682B68BB089585B38F7085BB71
:1007400085B3682B65BB089582B38F7082BB82B37B
:10075000682B62BB089584B7806884BF84B78068C3
:1007600084BF60E875E280E090E00E94E90784E4DD
:1007700067E00E94DB0681E461E041E00E945A00EC
:1007800084E464E040E00E945A0084E466E040E0D3
:100790000E945A0083E462E040E00E945A0083E431
:1007A00064E040E00E945A0084E463E00E94FD0699
:1007B0000E9449000E94260680E690E00E94A7065B
:1007C0008FEF9DE3A9E481509040A040E1F700C085
:1007D000000084E467E00E94DF06C0E0D0E0BE01D4
:1007E000882777FD8095982F0E94BF080E94EE060B
:1007F000AFE0B7E21197F1F700C000002196CB35CA
:10080000D10569F784E467E00E94E306CAE5D0E019
:10081000BE01882777FD8095982F0E94BF080E940F
:10082000EE068FE097E20197F1F700C000002197F4
:100830009FEFCF3FD90761F70E94B6060E94B1072C
:100840005524882444249924EE24662477240F2EEA
:10085000FDE62F2EF0E03F2EF02DAE2C0E944F0033
:10086000DC01BD01882777FD8095982F0E94BF0885
:1008700020E030E040E85EE30E944F090E949108CA
:100880006B017C0184E463E00E9408078C0183E42F
:1008900062E00E94C901E82E83E464E00E94C9017D
:1008A000F82EBCE3CB16D10408F467C081E461E004
:1008B00041E00E94EB0084E467E00E94DF06E30170
:1008C000BE01882777FD8095982F0E94BF080E945F
:1008D000EE068FE097E20197F1F700C00000219645
:1008E000CB35D10569F70E94B606C1010E94A70663
:1008F0000E944F00DC01BD01882777FD8095982F6D
:100900000E94BF0820E030E040E85EE30E944F090B
:1009100020E030E040E752E40E944B09882344F78E
:1009200081E461E040E00E94EB000E94B60684E4AE
:1009300064E00E94C9018823D1F384E466E00E9448
:10094000C9018823A1F384E467E00E94E306CAE5B5
:10095000D0E0BE01882777FD8095982F0E94BF08C0
:100960000E94EE068FE097E20197F1F700C00000C9
:1009700021979FEFCF3FD90761F70B30110520F486
:100980000130110521F404C0AA24A39401C0AA24B3
:1009900011E0FF2009F410E081E0EE2009F480E08E
:1009A000180F19191A0D8091B8009091B9008C3563
:1009B000910589F5141579F10E94B60680E060E092
:1009C0000E94C0068AE790E00E94A70680E06CE0E3
:1009D0000E94C006C12F143008F0C3E08C2F805D48
:1009E0000E94850681E060E00E94C00688E890E0F1
:1009F0000E94A706C6016AE070E00E94F509082F70
:100A0000862F805D0E948506802F805D0E9485066E
:100A1000412E1C2F992484E464E00E94C90188239C
:100A200009F063C0882029F1412E439484E467E0F3
:100A30000E94E306CAE5D0E0BE01882777FD8095D5
:100A4000982F0E94BF080E94EE06AFE0B7E2119710
:100A5000F1F700C000002197BFEFCF3FDB0761F740
:100A600084E464E00E94C9018823D1F3882481E0F2
:100A700001C080E0112369F18823B9F50E94B60610
:100A800080E060E00E94C00680E990E00E94A70636
:100A90009394539484E467E00E94DF06E301BE016F
:100AA000882777FD8095982F0E94BF080E94EE0648
:100AB0008FE097E20197F1F700C000002196CB3557
:100AC000D10569F784E466E00E94C9018823D1F763
:100AD0000CC00E94B6068BE990E00E94A70684E451
:100AE00064E00E94C9018823D1F384E466E00E9497
:100AF000C901882309F0B2CE552011F184E467E0E2
:100B00000E94E306CAE5D0E0BE01882777FD809504
:100B1000982F0E94BF080E94EE06AFE0B7E211973F
:100B2000F1F700C000002197BFEFCF3FDB0761F76F
:100B300084E466E00E94C9018823D1F355248ECE57
:100B40000E94B60680E060E00E94C0068CEA90E059
:100B50000E94A70684E467E00E94DF06E301BE016D
:100B6000882777FD8095982F0E94BF080E94EE0687
:100B70008FE097E20197F1F700C000002196CB3596
:100B8000D10569F784E464E00E94C9018823D1F7A4
:100B9000839464CE1F920F920FB60F9211248F93FD
:100BA0009F938091B8009091B9008C35910529F4FC
:100BB00014BC1092B9001092B8008091B8009091C6
:100BC000B90001969093B9008093B8009F918F91DE
:100BD0000F900FBE0F901F90189582E460E041E0E7
:100BE0000E94EB008FE99FE00197F1F700C0000041
:100BF00082E460E040E00E94EB008FE99FE0019713
:100C0000F1F700C000000895CF93C82F682F6295B8
:100C10006F7081E40E94760382E461E040E00E940C
:100C2000EB000E94ED0581E46C2F0E94760382E4C4
:100C300061E040E00E94EB000E94ED058FEC97E040
:100C40000197F1F700C00000CF9108958FEF91EE6A
:100C5000A4E081509040A040E1F700C0000081E492
:100C600064E041E00E945A0081E465E041E00E94B6
:100C70005A0081E466E041E00E945A0081E467E0A6
:100C800041E00E945A0082E460E041E00E945A0084
:100C900082E462E041E00E945A0082E461E041E0C7
:100CA0000E945A0082E462E040E00E94EB0082E091
:100CB0000E940406AFE1BEE41197F1F700C0000006
:100CC00088E20E9404068FEC97E00197F1F700C0DC
:100CD00000008FE00E940406AFECB7E01197F1F737
:100CE00000C0000081E00E9404068FE19EE40197AD
:100CF000F1F700C0000086E00E940406AFECB7E008
:100D00001197F1F700C000000895CF93C82F682F06
:100D100062956F7081E40E94760382E461E041E0B5
:100D20000E94EB000E94ED0581E46C2F0E94760387
:100D300082E461E041E00E94EB000E94ED058FEC4F
:100D400097E00197F1F700C00000CF910895CF938D
:100D5000DF93EC018881882331F021960E9485067B
:100D600089918823D9F7DF91CF91089581E00E947E
:100D700004068FE19EE40197F1F700C0000008959A
:100D8000823060F4603160F4882319F4962F905813
:100D900008C0813031F4962F905403C090E801C010
:100DA00090E8892F0E9404068FEC97E00197F1F7F5
:100DB00000C00000089541E00E945A00089541E0FB
:100DC0000E94EB00089540E00E94EB0008950E940D
:100DD0007C01089541E00E945A00089521E63BE01D
:100DE00046EB5BE30E944F0929EB3CEF4FEB5FE3DF
:100DF0000E942D080E94C807089541E00E945A00F1
:100E000078948BB780648BBF85B7816085BF089568
:100E1000CF93DF93D82FC62F8091B7008823D1F4CA
:100E20008D2F41E00E94EB0088E28A95F1F78D2F2B
:100E30006C2F40E00E94EB0081E08093B70083BFFD
:100E400089B7816089BF2091BA003091BB00822FA1
:100E5000932F00C0DF91CF9108951F920F920FB68C
:100E60000F9211242F933F934F935F936F937F9330
:100E70008F939F93AF93BF93EF93FF938091B700AE
:100E80008130A1F58091B600882349F412BE81E03B
:100E90008093B6001092B5001092B40027C0609104
:100EA000B4007091B50082B7762F6627680F711D68
:100EB00080E090E028E237E840E050E00E94D60968
:100EC00020E034E244EF50E00E94090A3093BB0076
:100ED0002093BA008FE295E70197F1F700C0000078
:100EE0001092B5001092B4001092B600FF91EF91ED
:100EF000BF91AF919F918F917F916F915F914F9132
:100F00003F912F910F900FBE0F901F9018951F9239
:100F10000F920FB60F9211242F938F939F9380916E
:100F2000B4009091B50001969093B5008093B40001
:100F30008091B4009091B50023E0883E920749F477
:100F400012BE1092B7001092B6001092B500109227
:100F5000B4009F918F912F910F900FBE0F901F9013
:100F60001895789487E085BD89B7806489BF089516
:100F700083B7886083BF80E58CBF83B7816083BF00
:100F800083B7846083BF789489B7826089BF0895EE
:100F90008D9A2EB520612EBD2EB528602EBD2FB5A1
:100FA00022602FBD20E030E04AE754E40E944F0960
:100FB0000E949108DC01CB019BBD8ABD8FE19EE4BC
:100FC00097BD86BD8EB582608EBD8FB580688FBDA2
:100FD0000895DC01CB01880F991FAA1FBB1F880F42
:100FE000991FAA1FBB1F9C01AD01220F331F441F75
:100FF000551F220F331F441F551F60E072E18AE71F
:1010000090E00E94090A2150304030BD29B9539A1E
:10101000549A86E880BD08955D9BFECF8CB90895F3
:101020005F9BFECF8CB10895CF93DF93EC01888155
:10103000882379F021960E940C088FEF90E7A2E0B8
:1010400081509040A040E1F700C0000089918823C2
:1010500091F7DF91CF9108955058BB27AA270ED062
:10106000E0C0D1D030F0D6D020F031F49F3F11F461
:101070001EF4C6C00EF4E095E7FBBCC0E92FE2D039
:1010800080F3BA17620773078407950718F071F4A5
:101090009EF5FAC00EF4E0950B2EBA2FA02D0B0191
:1010A000B90190010C01CA01A0011124FF27591BAD
:1010B00099F0593F50F4503E68F11A16F040A22FB3
:1010C000232F342F4427585FF3CF46953795279524
:1010D000A795F0405395C9F77EF41F16BA0B620B23
:1010E000730B840BBAF09150A1F0FF0FBB1F661F6A
:1010F000771F881FC2F70EC0BA0F621F731F841FAD
:1011000048F4879577956795B795F7959E3F08F0D2
:10111000B3CF9395880F08F09927EE0F9795879591
:10112000089598D088F09F5790F0B92F9927B7511C
:10113000A0F0D1F0660F771F881F991F1AF0BA959B
:10114000C9F712C0B13081F09FD0B1E008959CC0C2
:10115000672F782F8827B85F39F0B93FCCF3869591
:1011600077956795B395D9F73EF4909580957095EE
:1011700061957F4F8F4F9F4F0895E89409C097FB6B
:101180003EF490958095709561957F4F8F4F9F4F5E
:101190009923A9F0F92F96E9BB279395F6958795A2
:1011A00077956795B795F111F8CFFAF4BB0F11F465
:1011B00060FF1BC06F5F7F4F8F4F9F4F16C088230C
:1011C00011F096E911C0772321F09EE8872F762F42
:1011D00005C0662371F096E8862F70E060E02AF083
:1011E0009A95660F771F881FDAF7880F969587956F
:1011F00097F9089597F99F6780E870E060E0089597
:101200009FEF80EC089500240A941616170618061E
:101210000906089500240A941216130614060506FA
:101220000895092E0394000C11F4882352F0BB0F8B
:1012300040F4BF2B11F460FF04C06F5F7F4F8F4FEE
:101240009F4F089557FD9058440F551F59F05F3F29
:1012500071F04795880F97FB991F61F09F3F79F0D8
:1012600087950895121613061406551FF2CF46955A
:10127000F1DF08C0161617061806991FF1CF8695DC
:101280007105610508940895E894BB2766277727C0
:10129000CB0197F9089566D008F48FEF08950BD02D
:1012A000C0CFB1DF28F0B6DF18F0952309F0A2CF48
:1012B000A7CF1124EACFC6DFA0F3959FD1F3950FF6
:1012C00050E0551F629FF001729FBB27F00DB11DCA
:1012D000639FAA27F00DB11DAA1F649F6627B00D5A
:1012E000A11D661F829F2227B00DA11D621F739F43
:1012F000B00DA11D621F839FA00D611D221F749F51
:101300003327A00D611D231F849F600D211D822F97
:10131000762F6A2F11249F5750408AF0E1F08823DE
:101320004AF0EE0FFF1FBB1F661F771F881F9150EB
:101330005040A9F79E3F510570F05CCFA6CF5F3FAC
:10134000ECF3983EDCF3869577956795B795F7951E
:10135000E7959F5FC1F7FE2B880F911D96958795A6
:1013600097F90895990F0008550FAA0BE0E8FEEFD2
:1013700016161706E807F907C0F012161306E40759
:10138000F50798F0621B730B840B950B39F40A2652
:1013900061F0232B242B252B21F408950A2609F430
:1013A000A140A6958FEF811D811D0895629FD001F8
:1013B000739FF001829FE00DF11D649FE00DF11D10
:1013C000929FF00D839FF00D749FF00D659FF00DBF
:1013D0009927729FB00DE11DF91F639FB00DE11DAC
:1013E000F91FBD01CF0111240895AA1BBB1B51E1B8
:1013F00007C0AA1FBB1FA617B70710F0A61BB70B85
:10140000881F991F5A95A9F780959095BC01CD0129
:101410000895A1E21A2EAA1BBB1BFD010DC0AA1F35
:10142000BB1FEE1FFF1FA217B307E407F50720F04D
:10143000A21BB30BE40BF50B661F771F881F991FC8
:101440001A9469F760957095809590959B01AC0111
:0A145000BD01CF010895F894FFCF0D
:10145A004D4541535552454D454E545300466972C8
:10146A006520416C61726D202100467265652073AA
:10147A006C6F7473203A200074656D70203D2000F3
:10148A0057656C636F6D65203A29004E6F2066724E
:10149A00656520736C6F7473203A28004279652061
:0414AA003A290000DB
:00000001FF
